{
  "_format": "hh-sol-artifact-1",
  "contractName": "EnverLee",
  "sourceName": "contracts/EnverLee.sol",
  "abi": [
    {
      "inputs": [
        {
          "internalType": "address",
          "name": "newResolver",
          "type": "address"
        },
        {
          "internalType": "address payable",
          "name": "newBeneficiary",
          "type": "address"
        },
        {
          "internalType": "address",
          "name": "newAdmin",
          "type": "address"
        }
      ],
      "stateMutability": "nonpayable",
      "type": "constructor"
    },
    {
      "anonymous": false,
      "inputs": [
        {
          "indexed": false,
          "internalType": "bool",
          "name": "is721",
          "type": "bool"
        },
        {
          "indexed": true,
          "internalType": "address",
          "name": "lenderAddress",
          "type": "address"
        },
        {
          "indexed": true,
          "internalType": "address",
          "name": "nftAddress",
          "type": "address"
        },
        {
          "indexed": true,
          "internalType": "uint256",
          "name": "tokenID",
          "type": "uint256"
        },
        {
          "indexed": false,
          "internalType": "uint256",
          "name": "lendingID",
          "type": "uint256"
        },
        {
          "indexed": false,
          "internalType": "uint8",
          "name": "maxRentDuration",
          "type": "uint8"
        },
        {
          "indexed": false,
          "internalType": "bytes4",
          "name": "dailyRentPrice",
          "type": "bytes4"
        },
        {
          "indexed": false,
          "internalType": "uint16",
          "name": "lendAmount",
          "type": "uint16"
        },
        {
          "indexed": false,
          "internalType": "enum IResolver.PaymentToken",
          "name": "paymentToken",
          "type": "uint8"
        }
      ],
      "name": "Lend",
      "type": "event"
    },
    {
      "anonymous": false,
      "inputs": [
        {
          "indexed": true,
          "internalType": "address",
          "name": "renterAddress",
          "type": "address"
        },
        {
          "indexed": true,
          "internalType": "uint256",
          "name": "lendingID",
          "type": "uint256"
        },
        {
          "indexed": true,
          "internalType": "uint256",
          "name": "rentingID",
          "type": "uint256"
        },
        {
          "indexed": false,
          "internalType": "uint16",
          "name": "rentAmount",
          "type": "uint16"
        },
        {
          "indexed": false,
          "internalType": "uint8",
          "name": "rentDuration",
          "type": "uint8"
        },
        {
          "indexed": false,
          "internalType": "uint32",
          "name": "rentedAt",
          "type": "uint32"
        }
      ],
      "name": "Rent",
      "type": "event"
    },
    {
      "anonymous": false,
      "inputs": [
        {
          "indexed": true,
          "internalType": "uint256",
          "name": "rentingID",
          "type": "uint256"
        },
        {
          "indexed": false,
          "internalType": "uint32",
          "name": "collectedAt",
          "type": "uint32"
        }
      ],
      "name": "RentClaimed",
      "type": "event"
    },
    {
      "anonymous": false,
      "inputs": [
        {
          "indexed": true,
          "internalType": "uint256",
          "name": "lendingID",
          "type": "uint256"
        },
        {
          "indexed": false,
          "internalType": "uint32",
          "name": "stoppedAt",
          "type": "uint32"
        }
      ],
      "name": "StopLend",
      "type": "event"
    },
    {
      "anonymous": false,
      "inputs": [
        {
          "indexed": true,
          "internalType": "uint256",
          "name": "rentingID",
          "type": "uint256"
        },
        {
          "indexed": false,
          "internalType": "uint32",
          "name": "stoppedAt",
          "type": "uint32"
        }
      ],
      "name": "StopRent",
      "type": "event"
    },
    {
      "inputs": [
        {
          "internalType": "enum IRegistry.NFTStandard[]",
          "name": "nftStandard",
          "type": "uint8[]"
        },
        {
          "internalType": "address[]",
          "name": "nftAddress",
          "type": "address[]"
        },
        {
          "internalType": "uint256[]",
          "name": "tokenID",
          "type": "uint256[]"
        },
        {
          "internalType": "uint256[]",
          "name": "_lendingID",
          "type": "uint256[]"
        },
        {
          "internalType": "uint256[]",
          "name": "_rentingID",
          "type": "uint256[]"
        }
      ],
      "name": "claimRent",
      "outputs": [],
      "stateMutability": "nonpayable",
      "type": "function"
    },
    {
      "inputs": [],
      "name": "defaultRentFee",
      "outputs": [
        {
          "internalType": "uint256",
          "name": "",
          "type": "uint256"
        }
      ],
      "stateMutability": "view",
      "type": "function"
    },
    {
      "inputs": [
        {
          "internalType": "address",
          "name": "nftAddress",
          "type": "address"
        },
        {
          "internalType": "uint256",
          "name": "tokenID",
          "type": "uint256"
        },
        {
          "internalType": "uint256",
          "name": "_lendingID",
          "type": "uint256"
        }
      ],
      "name": "getLending",
      "outputs": [
        {
          "internalType": "uint8",
          "name": "",
          "type": "uint8"
        },
        {
          "internalType": "address",
          "name": "",
          "type": "address"
        },
        {
          "internalType": "uint8",
          "name": "",
          "type": "uint8"
        },
        {
          "internalType": "bytes4",
          "name": "",
          "type": "bytes4"
        },
        {
          "internalType": "uint16",
          "name": "",
          "type": "uint16"
        },
        {
          "internalType": "uint16",
          "name": "",
          "type": "uint16"
        },
        {
          "internalType": "uint8",
          "name": "",
          "type": "uint8"
        }
      ],
      "stateMutability": "view",
      "type": "function"
    },
    {
      "inputs": [
        {
          "internalType": "address",
          "name": "nftAddress",
          "type": "address"
        },
        {
          "internalType": "uint256",
          "name": "tokenID",
          "type": "uint256"
        },
        {
          "internalType": "uint256",
          "name": "_rentingID",
          "type": "uint256"
        }
      ],
      "name": "getRenting",
      "outputs": [
        {
          "internalType": "address",
          "name": "",
          "type": "address"
        },
        {
          "internalType": "uint16",
          "name": "",
          "type": "uint16"
        },
        {
          "internalType": "uint8",
          "name": "",
          "type": "uint8"
        },
        {
          "internalType": "uint32",
          "name": "",
          "type": "uint32"
        }
      ],
      "stateMutability": "view",
      "type": "function"
    },
    {
      "inputs": [
        {
          "internalType": "enum IRegistry.NFTStandard[]",
          "name": "nftStandard",
          "type": "uint8[]"
        },
        {
          "internalType": "address[]",
          "name": "nftAddress",
          "type": "address[]"
        },
        {
          "internalType": "uint256[]",
          "name": "tokenID",
          "type": "uint256[]"
        },
        {
          "internalType": "uint256[]",
          "name": "lendAmount",
          "type": "uint256[]"
        },
        {
          "internalType": "uint8[]",
          "name": "maxRentDuration",
          "type": "uint8[]"
        },
        {
          "internalType": "bytes4[]",
          "name": "dailyRentPrice",
          "type": "bytes4[]"
        },
        {
          "internalType": "enum IResolver.PaymentToken[]",
          "name": "paymentToken",
          "type": "uint8[]"
        }
      ],
      "name": "lend",
      "outputs": [],
      "stateMutability": "nonpayable",
      "type": "function"
    },
    {
      "inputs": [
        {
          "internalType": "address",
          "name": "",
          "type": "address"
        },
        {
          "internalType": "address",
          "name": "",
          "type": "address"
        },
        {
          "internalType": "uint256[]",
          "name": "",
          "type": "uint256[]"
        },
        {
          "internalType": "uint256[]",
          "name": "",
          "type": "uint256[]"
        },
        {
          "internalType": "bytes",
          "name": "",
          "type": "bytes"
        }
      ],
      "name": "onERC1155BatchReceived",
      "outputs": [
        {
          "internalType": "bytes4",
          "name": "",
          "type": "bytes4"
        }
      ],
      "stateMutability": "nonpayable",
      "type": "function"
    },
    {
      "inputs": [
        {
          "internalType": "address",
          "name": "",
          "type": "address"
        },
        {
          "internalType": "address",
          "name": "",
          "type": "address"
        },
        {
          "internalType": "uint256",
          "name": "",
          "type": "uint256"
        },
        {
          "internalType": "uint256",
          "name": "",
          "type": "uint256"
        },
        {
          "internalType": "bytes",
          "name": "",
          "type": "bytes"
        }
      ],
      "name": "onERC1155Received",
      "outputs": [
        {
          "internalType": "bytes4",
          "name": "",
          "type": "bytes4"
        }
      ],
      "stateMutability": "nonpayable",
      "type": "function"
    },
    {
      "inputs": [
        {
          "internalType": "address",
          "name": "",
          "type": "address"
        },
        {
          "internalType": "address",
          "name": "",
          "type": "address"
        },
        {
          "internalType": "uint256",
          "name": "",
          "type": "uint256"
        },
        {
          "internalType": "bytes",
          "name": "",
          "type": "bytes"
        }
      ],
      "name": "onERC721Received",
      "outputs": [
        {
          "internalType": "bytes4",
          "name": "",
          "type": "bytes4"
        }
      ],
      "stateMutability": "nonpayable",
      "type": "function"
    },
    {
      "inputs": [],
      "name": "paused",
      "outputs": [
        {
          "internalType": "bool",
          "name": "",
          "type": "bool"
        }
      ],
      "stateMutability": "view",
      "type": "function"
    },
    {
      "inputs": [
        {
          "internalType": "enum IRegistry.NFTStandard[]",
          "name": "nftStandard",
          "type": "uint8[]"
        },
        {
          "internalType": "address[]",
          "name": "nftAddress",
          "type": "address[]"
        },
        {
          "internalType": "uint256[]",
          "name": "tokenID",
          "type": "uint256[]"
        },
        {
          "internalType": "uint256[]",
          "name": "_lendingID",
          "type": "uint256[]"
        },
        {
          "internalType": "uint8[]",
          "name": "rentDuration",
          "type": "uint8[]"
        },
        {
          "internalType": "uint256[]",
          "name": "rentAmount",
          "type": "uint256[]"
        }
      ],
      "name": "rent",
      "outputs": [],
      "stateMutability": "payable",
      "type": "function"
    },
    {
      "inputs": [
        {
          "internalType": "address",
          "name": "",
          "type": "address"
        }
      ],
      "name": "rentFees",
      "outputs": [
        {
          "internalType": "uint256",
          "name": "",
          "type": "uint256"
        }
      ],
      "stateMutability": "view",
      "type": "function"
    },
    {
      "inputs": [
        {
          "internalType": "enum IRegistry.NFTStandard[]",
          "name": "nftStandard",
          "type": "uint8[]"
        },
        {
          "internalType": "address[]",
          "name": "nftAddress",
          "type": "address[]"
        },
        {
          "internalType": "uint256[]",
          "name": "tokenID",
          "type": "uint256[]"
        },
        {
          "internalType": "uint256[]",
          "name": "lendAmount",
          "type": "uint256[]"
        },
        {
          "internalType": "enum IResolver.PaymentToken[]",
          "name": "paymentToken",
          "type": "uint8[]"
        },
        {
          "internalType": "address",
          "name": "_to",
          "type": "address"
        },
        {
          "internalType": "uint256[]",
          "name": "tokenAmount",
          "type": "uint256[]"
        }
      ],
      "name": "sell",
      "outputs": [],
      "stateMutability": "payable",
      "type": "function"
    },
    {
      "inputs": [
        {
          "internalType": "address payable",
          "name": "newBeneficiary",
          "type": "address"
        }
      ],
      "name": "setBeneficiary",
      "outputs": [],
      "stateMutability": "nonpayable",
      "type": "function"
    },
    {
      "inputs": [
        {
          "internalType": "address",
          "name": "nftAddress",
          "type": "address"
        },
        {
          "internalType": "uint256",
          "name": "commissionRate",
          "type": "uint256"
        }
      ],
      "name": "setNFTGeneratorCommission",
      "outputs": [],
      "stateMutability": "nonpayable",
      "type": "function"
    },
    {
      "inputs": [
        {
          "internalType": "bool",
          "name": "newPaused",
          "type": "bool"
        }
      ],
      "name": "setPaused",
      "outputs": [],
      "stateMutability": "nonpayable",
      "type": "function"
    },
    {
      "inputs": [
        {
          "internalType": "uint256",
          "name": "newRentFee",
          "type": "uint256"
        }
      ],
      "name": "setRentFee",
      "outputs": [],
      "stateMutability": "nonpayable",
      "type": "function"
    },
    {
      "inputs": [
        {
          "internalType": "enum IRegistry.NFTStandard[]",
          "name": "nftStandard",
          "type": "uint8[]"
        },
        {
          "internalType": "address[]",
          "name": "nftAddress",
          "type": "address[]"
        },
        {
          "internalType": "uint256[]",
          "name": "tokenID",
          "type": "uint256[]"
        },
        {
          "internalType": "uint256[]",
          "name": "_lendingID",
          "type": "uint256[]"
        }
      ],
      "name": "stopLend",
      "outputs": [],
      "stateMutability": "nonpayable",
      "type": "function"
    },
    {
      "inputs": [
        {
          "internalType": "enum IRegistry.NFTStandard[]",
          "name": "nftStandard",
          "type": "uint8[]"
        },
        {
          "internalType": "address[]",
          "name": "nftAddress",
          "type": "address[]"
        },
        {
          "internalType": "uint256[]",
          "name": "tokenID",
          "type": "uint256[]"
        },
        {
          "internalType": "uint256[]",
          "name": "_lendingID",
          "type": "uint256[]"
        },
        {
          "internalType": "uint256[]",
          "name": "_rentingID",
          "type": "uint256[]"
        }
      ],
      "name": "stopRent",
      "outputs": [],
      "stateMutability": "nonpayable",
      "type": "function"
    },
    {
      "inputs": [
        {
          "internalType": "bytes4",
          "name": "interfaceId",
          "type": "bytes4"
        }
      ],
      "name": "supportsInterface",
      "outputs": [
        {
          "internalType": "bool",
          "name": "",
          "type": "bool"
        }
      ],
      "stateMutability": "view",
      "type": "function"
    }
  ],
  "bytecode": "0x6080604052600160038190556004556005805460ff1916905560026006553480156200002a57600080fd5b5060405162005536380380620055368339810160408190526200004d916200011a565b6200005883620000bc565b6200006382620000bc565b6200006e81620000bc565b6200007981620000bc565b600080546001600160a01b039485166001600160a01b03199182161790915560028054938516938216939093179092556001805491909316911617905562000184565b6001600160a01b038116620001175760405162461bcd60e51b815260206004820152601360248201527f52654e46543a3a7a65726f206164647265737300000000000000000000000000604482015260640160405180910390fd5b50565b6000806000606084860312156200013057600080fd5b83516200013d816200016e565b602085015190935062000150816200016e565b604085015190925062000163816200016e565b809150509250925092565b6001600160a01b03811681146200011757600080fd5b6153a280620001946000396000f3fe6080604052600436106101145760003560e01c806376774ea3116100a0578063c9c4018311610064578063c9c4018314610380578063cbe55e54146103a0578063f18ea517146103b3578063f23a6e61146103c9578063fe46b7cd146103f557600080fd5b806376774ea3146102c6578063937821a1146102e65780639ddf71f014610306578063bc197c8114610319578063c439c3321461034557600080fd5b80631c31f710116100e75780631c31f710146101d45780631cbb410f146101f4578063296c21b7146102145780632a0800b51461028c5780635c975abb146102ac57600080fd5b806301ffc9a71461011957806314b5685c1461014e578063150b7a021461017057806316c38b3c146101b4575b600080fd5b34801561012557600080fd5b50610139610134366004614dec565b610450565b60405190151581526020015b60405180910390f35b34801561015a57600080fd5b5061016e610169366004614aef565b610487565b005b34801561017c57600080fd5b5061019b61018b366004614815565b630a85bd0160e11b949350505050565b6040516001600160e01b03199091168152602001610145565b3480156101c057600080fd5b5061016e6101cf366004614db2565b6104d2565b3480156101e057600080fd5b5061016e6101ef36600461472e565b61050f565b34801561020057600080fd5b5061016e61020f366004614bb3565b61055b565b34801561022057600080fd5b5061023461022f366004614914565b61059c565b6040805160ff98891681526001600160a01b039097166020880152948716948601949094526001600160e01b0319909216606085015261ffff90811660808501521660a08301529190911660c082015260e001610145565b34801561029857600080fd5b5061016e6102a73660046148e8565b610672565b3480156102b857600080fd5b506005546101399060ff1681565b3480156102d257600080fd5b5061016e6102e1366004614e07565b6107f6565b3480156102f257600080fd5b5061016e610301366004614aef565b610876565b61016e6103143660046149e9565b6108ac565b34801561032557600080fd5b5061019b610334366004614768565b63bc197c8160e01b95945050505050565b34801561035157600080fd5b5061037261036036600461472e565b60076020526000908152604090205481565b604051908152602001610145565b34801561038c57600080fd5b5061016e61039b366004614949565b6108e8565b61016e6103ae366004614cbe565b61094f565b3480156103bf57600080fd5b5061037260065481565b3480156103d557600080fd5b5061019b6103e4366004614880565b63f23a6e6160e01b95945050505050565b34801561040157600080fd5b50610415610410366004614914565b61098e565b604080516001600160a01b03909516855261ffff909316602085015260ff9091169183019190915263ffffffff166060820152608001610145565b60006001600160e01b03198216630271189760e51b148061048157506301ffc9a760e01b6001600160e01b03198316145b92915050565b60055460ff16156104b35760405162461bcd60e51b81526004016104aa90615053565b60405180910390fd5b6104cb610a0c6104c68787878787610fd1565b611157565b5050505050565b6001546001600160a01b031633146104fc5760405162461bcd60e51b81526004016104aa9061507a565b6005805460ff1916911515919091179055565b6001546001600160a01b031633146105395760405162461bcd60e51b81526004016104aa9061507a565b600280546001600160a01b0319166001600160a01b0392909216919091179055565b60055460ff161561057e5760405162461bcd60e51b81526004016104aa90615053565b61059361128c6104c68989898989898961182f565b50505050505050565b6000806000806000806000808a8a8a6040516020016105bd93929190614e78565b60408051601f19818403018152918152815160209283012060008181526008909352912080549192509060ff1660018111156105fb576105fb6152f8565b81546001600160a01b036101008204169060ff600160a81b8204811691600160b01b810460e01b9161ffff600160d01b8304811692600160e01b810490911691600160f01b909104166001811115610655576106556152f8565b985098509850985098509850985050509397509397509397909450565b6001600160a01b0382166106bb5760405162461bcd60e51b815260206004820152601060248201526f496e76616c696420616464726573732160801b60448201526064016104aa565b336001600160a01b0316826001600160a01b0316638da5cb5b6040518163ffffffff1660e01b815260040160206040518083038186803b1580156106fe57600080fd5b505afa158015610712573d6000803e3d6000fd5b505050506040513d601f19601f82011682018060405250810190610736919061474b565b6001600160a01b0316146107975760405162461bcd60e51b815260206004820152602260248201527f53656e642073686f756c64206265204e465420436f6e7472616374206f776e65604482015261722160f01b60648201526084016104aa565b600081116107da5760405162461bcd60e51b815260206004820152601060248201526f496e76616c696420616464726573732160801b60448201526064016104aa565b6001600160a01b03909116600090815260076020526040902055565b6001546001600160a01b031633146108205760405162461bcd60e51b81526004016104aa9061507a565b61271081106108715760405162461bcd60e51b815260206004820152601960248201527f52654e46543a3a6665652065786365656473203130307063740000000000000060448201526064016104aa565b600655565b60055460ff16156108995760405162461bcd60e51b81526004016104aa90615053565b6104cb61195f6104c68787878787610fd1565b60055460ff16156108cf5760405162461bcd60e51b81526004016104aa90615053565b610593611d876108e28989898989611f29565b846120ad565b60055460ff161561090b5760405162461bcd60e51b81526004016104aa90615053565b6109496121e96104c6868686866000604051908082528060200260200182016040528015610943578160200160208202803683370190505b50610fd1565b50505050565b60055460ff16156109725760405162461bcd60e51b81526004016104aa90615053565b6109866125a26104c6888888888888612d23565b505050505050565b60008060008060008787876040516020016109ab93929190614e78565b60408051808303601f190181529181528151602092830120600090815260099092529020546001600160a01b03811699600160c81b820461ffff169950600160a01b820460ff169850600160a81b90910463ffffffff169650945050505050565b80515b8160200151811015610fcd5760008260600151836000015181518110610a3757610a3761530e565b602002602001015183608001518381518110610a5557610a5561530e565b60200260200101518461010001518481518110610a7457610a7461530e565b6020026020010151604051602001610a8e93929190614e78565b60405160208183030381529060405280519060200120905060008360600151846000015181518110610ac257610ac261530e565b602002602001015184608001518481518110610ae057610ae061530e565b60200260200101518561012001518581518110610aff57610aff61530e565b6020026020010151604051602001610b1993929190614e78565b60408051601f198184030181528282528051602091820120600086815260088352838120828252600990935283902060e0850190935281549094509092610c1a918490829060ff166001811115610b7257610b726152f8565b6001811115610b8357610b836152f8565b815281546001600160a01b03610100820416602083015260ff600160a81b8204811660408401526001600160e01b0319600160b01b830460e01b16606084015261ffff600160d01b830481166080850152600160e01b83041660a084015260c090920191600160f01b909104166001811115610c0157610c016152f8565b6001811115610c1257610c126152f8565b905250612e45565b6040805160808101825282546001600160a01b0381168252600160a01b810460ff166020830152600160a81b810463ffffffff1692820192909252600160c81b90910461ffff166060820152610c6f90612ec8565b6040805160808101825282546001600160a01b0381168252600160a01b810460ff166020830152600160a81b810463ffffffff1692820192909252600160c81b90910461ffff166060820152610cc6903342612f4e565b815460ff166001811115610cdc57610cdc6152f8565b86604001518681518110610cf257610cf261530e565b60200260200101516001811115610d0b57610d0b6152f8565b14610d285760405162461bcd60e51b81526004016104aa90614fae565b81548154600160d01b90910461ffff908116600160c81b909204161115610d895760405162461bcd60e51b81526020600482015260156024820152742932a7232a1d1d31b934ba34b1b0b61032b93937b960591b60448201526064016104aa565b8054600090610da590600160a81b900463ffffffff1642615284565b6040805160e081019091528454919250610ee9918590829060ff166001811115610dd157610dd16152f8565b6001811115610de257610de26152f8565b815281546001600160a01b03610100820416602083015260ff600160a81b8204811660408401526001600160e01b0319600160b01b830460e01b16606084015261ffff600160d01b830481166080850152600160e01b83041660a084015260c090920191600160f01b909104166001811115610e6057610e606152f8565b6001811115610e7157610e716152f8565b9052506040805160808101825285546001600160a01b0381168252600160a01b810460ff166020830152600160a81b810463ffffffff1692820192909252600160c81b90910461ffff166060808301919091528a015180518591908b908110610edc57610edc61530e565b6020026020010151612ffe565b81546000868152600860205260409020805461ffff600160c81b909304831692601c91610f1f918591600160e01b9004166150f7565b92506101000a81548161ffff021916908361ffff1602179055508661012001518681518110610f5057610f5061530e565b60200260200101517f58855dd8908b14c6d7922d964418f37efd968bc6b9b857560870b14a898f916d42604051610f93919063ffffffff91909116815260200190565b60405180910390a2505050600090815260096020526040902080546001600160d81b03191690555080610fc5816152c7565b915050610a0f565b5050565b610fd9614409565b604051806101a00160405280600081526020016001815260200187815260200186815260200185815260200160006001600160401b0381111561101e5761101e615324565b604051908082528060200260200182016040528015611047578160200160208202803683370190505b5081526020016000604051908082528060200260200182016040528015611078578160200160208202803683370190505b50815260200160006040519080825280602002602001820160405280156110a9578160200160208202803683370190505b508152602081018590526040810184905260600160006040519080825280602002602001820160405280156110e8578160200160208202803683370190505b5081526020016000604051908082528060200260200182016040528015611119578160200160208202803683370190505b508152602001600060405190808252806020026020018201604052801561114a578160200160208202803683370190505b5090529695505050505050565b60008160600151511161119d5760405162461bcd60e51b815260206004820152600e60248201526d52654e46543a3a6e6f206e66747360901b60448201526064016104aa565b80606001515181602001511461127f5780606001518160200151815181106111c7576111c761530e565b60200260200101516001600160a01b031681606001518260000151815181106111f2576111f261530e565b60200260200101516001600160a01b03161480156112425750600181604001518260200151815181106112275761122761530e565b60200260200101516001811115611240576112406152f8565b145b1561125f5760208101805190611257826152c7565b90525061119d565b61126c818363ffffffff16565b60208101805180835290611257826152c7565b610fcd818363ffffffff16565b80515b81602001518110156117ee576112a582826132a5565b600082606001518360000151815181106112c1576112c161530e565b6020026020010151836080015183815181106112df576112df61530e565b60200260200101516003546040516020016112fc93929190614e78565b60408051601f198184030181528282528051602091820120600081815260089092529082902060e08401909252815490935090916113f4918390829060ff16600181111561134c5761134c6152f8565b600181111561135d5761135d6152f8565b815281546001600160a01b03610100820416602083015260ff600160a81b8204811660408401526001600160e01b0319600160b01b830460e01b16606084015261ffff600160d01b830481166080850152600160e01b83041660a084015260c090920191600160f01b9091041660018111156113db576113db6152f8565b60018111156113ec576113ec6152f8565b905250613463565b61142c846101800151848151811061140e5761140e61530e565b60200260200101516001811115611427576114276152f8565b61351c565b600080856040015185815181106114455761144561530e565b6020026020010151600181111561145e5761145e6152f8565b1490506040518060e00160405280866040015186815181106114825761148261530e565b6020026020010151600181111561149b5761149b6152f8565b8152602001336001600160a01b031681526020018660c0015186815181106114c5576114c561530e565b602002602001015160ff1681526020018660e0015186815181106114eb576114eb61530e565b60200260200101516001600160e01b03191681526020018261152a578660a00151868151811061151d5761151d61530e565b602002602001015161152d565b60015b61ffff1681526020018261155e578660a0015186815181106115515761155161530e565b6020026020010151611561565b60015b61ffff16815260200186610180015186815181106115815761158161530e565b6020026020010151600181111561159a5761159a6152f8565b9052600084815260086020526040902081518154829060ff1916600183818111156115c7576115c76152f8565b02179055506020820151815460408401516060850151608086015160a0870151610100600160b01b03199094166101006001600160a01b039096169590950260ff60a81b191694909417600160a81b60ff909316929092029190911765ffffffffffff60b01b1916600160b01b60e09290921c9190910261ffff60d01b191617600160d01b61ffff938416021761ffff60e01b198116600160e01b9390921692909202908117835560c084015191839162ffffff60e01b1990911660ff60f01b1990911617600160f01b8360018111156116a3576116a36152f8565b0217905550905050846080015184815181106116c1576116c161530e565b602002602001015185606001518660000151815181106116e3576116e361530e565b60200260200101516001600160a01b0316336001600160a01b03167f46e173c7568bb4f093e16923381dcba2a6b48f9cc9e688867965731218500ad3846003548a60c001518a815181106117395761173961530e565b60200260200101518b60e001518b815181106117575761175761530e565b602002602001015188611787578c60a001518c8151811061177a5761177a61530e565b602002602001015161178a565b60015b8d61018001518d815181106117a1576117a161530e565b60200260200101516040516117bb96959493929190614f19565b60405180910390a4600380549060006117d3836152c7565b919050555050505080806117e6906152c7565b91505061128f565b5061182c81333061180e856080015186600001518760200151600061356f565b6118278660a0015187600001518860200151600061356f565b61362e565b50565b611837614409565b604051806101a00160405280600081526020016001815260200189815260200188815260200187815260200186815260200185815260200184815260200160006001600160401b0381111561188e5761188e615324565b6040519080825280602002602001820160405280156118b7578160200160208202803683370190505b50815260200160006040519080825280602002602001820160405280156118e8578160200160208202803683370190505b5081526020016000604051908082528060200260200182016040528015611919578160200160208202803683370190505b508152602001600060405190808252806020026020018201604052801561194a578160200160208202803683370190505b50815260200192909252509695505050505050565b80515b8160200151811015610fcd576000826060015183600001518151811061198a5761198a61530e565b6020026020010151836080015183815181106119a8576119a861530e565b602002602001015184610100015184815181106119c7576119c761530e565b60200260200101516040516020016119e193929190614e78565b60405160208183030381529060405280519060200120905060008360600151846000015181518110611a1557611a1561530e565b602002602001015184608001518481518110611a3357611a3361530e565b60200260200101518561012001518581518110611a5257611a5261530e565b6020026020010151604051602001611a6c93929190614e78565b60408051601f198184030181528282528051602091820120600086815260088352838120828252600990935283902060e0850190935281549094509092611ac5918490829060ff166001811115610b7257610b726152f8565b6040805160808101825282546001600160a01b0381168252600160a01b810460ff166020830152600160a81b810463ffffffff1692820192909252600160c81b90910461ffff166060820152611b1a90612ec8565b6040805160808101825282546001600160a01b0381168252600160a01b810460ff166020830152600160a81b810463ffffffff1692820192909252600160c81b90910461ffff166060820152611b7090426137af565b6040805160e081019091528254611caf91908490829060ff166001811115611b9a57611b9a6152f8565b6001811115611bab57611bab6152f8565b815281546001600160a01b03610100820416602083015260ff600160a81b8204811660408401526001600160e01b0319600160b01b830460e01b16606084015261ffff600160d01b830481166080850152600160e01b83041660a084015260c090920191600160f01b909104166001811115611c2957611c296152f8565b6001811115611c3a57611c3a6152f8565b9052506040805160808101825284546001600160a01b0381168252600160a01b810460ff166020830152600160a81b810463ffffffff1692820192909252600160c81b90910461ffff16606080830191909152890151805189908110611ca257611ca261530e565b6020026020010151613805565b8054825461ffff600160c81b9092048216918491601c91611cda918591600160e01b909104166150f7565b92506101000a81548161ffff021916908361ffff1602179055508561012001518581518110611d0b57611d0b61530e565b60200260200101517f4630b53a4335803b2a4f9c1ce896f4cadbf909907810e496eda17614483d7b9442604051611d4e919063ffffffff91909116815260200190565b60405180910390a25050600090815260096020526040902080546001600160d81b03191690555080611d7f816152c7565b915050611962565b81515b8260200151811015611ef15760008361018001518281518110611daf57611daf61530e565b60200260200101516001811115611dc857611dc86152f8565b6000805460405163c6ee427f60e01b815260ff8416600482015292935090916001600160a01b039091169063c6ee427f9060240160206040518083038186803b158015611e1457600080fd5b505afa158015611e28573d6000803e3d6000fd5b505050506040513d601f19601f82011682018060405250810190611e4c919061474b565b905060008560a001518481518110611e6657611e6661530e565b602002602001015190506000600654600014611ebb57611eb8828560ff166001811115611e9557611e956152f8565b89606001518881518110611eab57611eab61530e565b60200260200101516139c4565b90505b611eda86611ec98385615284565b6001600160a01b0386169190613b51565b505050508080611ee9906152c7565b915050611d8a565b50610fcd823383611f11866080015187600001518860200151600061356f565b60a0870151875160208901516118279291908161356f565b611f31614409565b604051806101a00160405280600081526020016001815260200187815260200186815260200185815260200184815260200160006001600160401b03811115611f7c57611f7c615324565b604051908082528060200260200182016040528015611fa5578160200160208202803683370190505b5081526020016000604051908082528060200260200182016040528015611fd6578160200160208202803683370190505b5081526020016000604051908082528060200260200182016040528015612007578160200160208202803683370190505b5081526020016000604051908082528060200260200182016040528015612038578160200160208202803683370190505b5081526020016000604051908082528060200260200182016040528015612069578160200160208202803683370190505b508152602001600060405190808252806020026020018201604052801561209a578160200160208202803683370190505b5081526020019290925250949350505050565b6000826060015151116120f35760405162461bcd60e51b815260206004820152600e60248201526d52654e46543a3a6e6f206e66747360901b60448201526064016104aa565b8160600151518260200151146121d657816060015182602001518151811061211d5761211d61530e565b60200260200101516001600160a01b031682606001518360000151815181106121485761214861530e565b60200260200101516001600160a01b031614801561219857506001826040015183602001518151811061217d5761217d61530e565b60200260200101516001811115612196576121966152f8565b145b156121b557602082018051906121ad826152c7565b9052506120f3565b6121c382828563ffffffff16565b602082018051808452906121ad826152c7565b6121e482828563ffffffff16565b505050565b805160208201516000916121fc91615284565b6001600160401b0381111561221357612213615324565b60405190808252806020026020018201604052801561223c578160200160208202803683370190505b5082519091505b826020015181101561256f576000836060015184600001518151811061226b5761226b61530e565b6020026020010151846080015183815181106122895761228961530e565b602002602001015185610100015184815181106122a8576122a861530e565b60200260200101516040516020016122c293929190614e78565b60408051601f198184030181528282528051602091820120600081815260089092529082902060e0840190925281549093509091612312918390829060ff166001811115610b7257610b726152f8565b6040805160e0810190915281546123e591908390829060ff16600181111561233c5761233c6152f8565b600181111561234d5761234d6152f8565b815281546001600160a01b03610100820416602083015260ff600160a81b8204811660408401526001600160e01b0319600160b01b830460e01b16606084015261ffff600160d01b830481166080850152600160e01b83041660a084015260c090920191600160f01b9091041660018111156123cb576123cb6152f8565b60018111156123dc576123dc6152f8565b90525033613bb4565b805460ff1660018111156123fb576123fb6152f8565b856040015184815181106124115761241161530e565b6020026020010151600181111561242a5761242a6152f8565b146124475760405162461bcd60e51b81526004016104aa90614fae565b8054600160d01b810461ffff908116600160e01b90920416146124a55760405162461bcd60e51b815260206004820152601660248201527514995391950e8e9858dd1a5d995b1e481c995b9d195960521b60448201526064016104aa565b80548551600160d01b90910461ffff169085906124c29086615284565b815181106124d2576124d261530e565b60200260200101818152505084610100015183815181106124f5576124f561530e565b60200260200101517fd0234bc8dd7e933f60cbc1e90fc139a8a9683af1cb92743607dafb9dfb70059b42604051612538919063ffffffff91909116815260200190565b60405180910390a250600090815260086020526040902080546001600160f81b031916905580612567816152c7565b915050612243565b50610fcd82303361258f866080015187600001518860200151600061356f565b865160208801516118279188918161356f565b80515b8160200151811015610fcd57600082606001518360000151815181106125cd576125cd61530e565b6020026020010151836080015183815181106125eb576125eb61530e565b6020026020010151846101000151848151811061260a5761260a61530e565b602002602001015160405160200161262493929190614e78565b604051602081830303815290604052805190602001209050600083606001518460000151815181106126585761265861530e565b6020026020010151846080015184815181106126765761267661530e565b602002602001015160045460405160200161269393929190614e78565b60408051601f198184030181528282528051602091820120600086815260088352838120828252600990935283902060e08501909352815490945090926126ec918490829060ff166001811115610b7257610b726152f8565b6040805160808101825282546001600160a01b0381168252600160a01b810460ff166020830152600160a81b810463ffffffff1692820192909252600160c81b90910461ffff16606082015261274190613c0d565b6040805160e08101909152825461281691908490829060ff16600181111561276b5761276b6152f8565b600181111561277c5761277c6152f8565b815281546001600160a01b03610100820416602083015260ff600160a81b8204811660408401526001600160e01b0319600160b01b830460e01b16606084015261ffff600160d01b830481166080850152600160e01b83041660a084015260c090920191600160f01b9091041660018111156127fa576127fa6152f8565b600181111561280b5761280b6152f8565b905250878733613cc0565b815460ff16600181111561282c5761282c6152f8565b866040015186815181106128425761284261530e565b6020026020010151600181111561285b5761285b6152f8565b146128785760405162461bcd60e51b81526004016104aa90614fae565b81546101608701518051600160e01b90920461ffff16918790811061289f5761289f61530e565b602002602001015111156128f55760405162461bcd60e51b815260206004820152601a60248201527f52654e46543a3a696e76616c69642072656e7420616d6f756e7400000000000060448201526064016104aa565b8154600090600160f01b900460ff166001811115612915576129156152f8565b6000805460405163c6ee427f60e01b815260ff8416600482015292935090916001600160a01b039091169063c6ee427f9060240160206040518083038186803b15801561296157600080fd5b505afa158015612975573d6000803e3d6000fd5b505050506040513d601f19601f82011682018060405250810190612999919061474b565b90506000816001600160a01b031663313ce5676040518163ffffffff1660e01b815260040160206040518083038186803b1580156129d657600080fd5b505afa1580156129ea573d6000803e3d6000fd5b505050506040513d601f19601f82011682018060405250810190612a0e9190614e20565b60ff1690506000612a2082600a61519a565b8654909150600090612a3c90600160b01b900460e01b83613f2b565b8b61014001518b81518110612a5357612a5361530e565b602002602001015160ff168c61016001518c81518110612a7557612a7561530e565b6020026020010151612a879190615242565b612a919190615242565b905060008111612ab35760405162461bcd60e51b81526004016104aa9061501c565b612ac86001600160a01b038516333084613fba565b50506040518060800160405280336001600160a01b031681526020018a61014001518a81518110612afb57612afb61530e565b602002602001015160ff1681526020014263ffffffff1681526020018a61016001518a81518110612b2e57612b2e61530e565b60209081029190910181015161ffff908116909252600089815260098252604090819020845181549386015192860151606090960151909416600160c81b0261ffff60c81b1963ffffffff909616600160a81b029590951665ffffffffffff60a81b1960ff909316600160a01b026001600160a81b03199094166001600160a01b0390951694909417929092171691909117919091179055610160890151805189908110612bde57612bde61530e565b6020908102919091018101516000898152600890925260409091208054601c90612c14908490600160e01b900461ffff16615261565b92506101000a81548161ffff021916908361ffff1602179055506004548961010001518981518110612c4857612c4861530e565b6020026020010151336001600160a01b03167f61e1a1e6f89eaba4ba0119b0023bd32b1bb0412ab96ccd8d0588a3e98a0976318c61016001518c81518110612c9257612c9261530e565b60200260200101518d61014001518d81518110612cb157612cb161530e565b6020908102919091018101518a546040805161ffff909516855260ff90921692840192909252600160a81b90910463ffffffff169082015260600160405180910390a460048054906000612d04836152c7565b9190505550505050505050508080612d1b906152c7565b9150506125a5565b612d2b614409565b604051806101a00160405280600081526020016001815260200188815260200187815260200186815260200160006001600160401b03811115612d7057612d70615324565b604051908082528060200260200182016040528015612d99578160200160208202803683370190505b5081526020016000604051908082528060200260200182016040528015612dca578160200160208202803683370190505b5081526020016000604051908082528060200260200182016040528015612dfb578160200160208202803683370190505b5081526020808201969096526040805160008082528189018352828401919091526060830196909652608082019490945283519485529484019092525060a0909201529392505050565b612e528160200151613ff2565b604081015160ff16612e9d5760405162461bcd60e51b815260206004820152601460248201527352654e46543a3a6475726174696f6e207a65726f60601b60448201526064016104aa565b60608101516001600160e01b03191661182c5760405162461bcd60e51b81526004016104aa9061501c565b8051612ed390613ff2565b602081015160ff16612ef75760405162461bcd60e51b81526004016104aa90614fe5565b604081015163ffffffff1661182c5760405162461bcd60e51b815260206004820152601860248201527f52654e46543a3a72656e746564206174206973207a65726f000000000000000060448201526064016104aa565b816001600160a01b031683600001516001600160a01b031614612fa75760405162461bcd60e51b81526020600482015260116024820152702932a7232a1d1d3737ba103932b73a32b960791b60448201526064016104aa565b612fb1838261403e565b156121e45760405162461bcd60e51b815260206004820152601760248201527f52654e46543a3a706173742072657475726e206461746500000000000000000060448201526064016104aa565b60008460c001516001811115613016576130166152f8565b6000805460405163c6ee427f60e01b815260ff8416600482015292935090916001600160a01b039091169063c6ee427f9060240160206040518083038186803b15801561306257600080fd5b505afa158015613076573d6000803e3d6000fd5b505050506040513d601f19601f8201168201806040525081019061309a919061474b565b90506000816001600160a01b031663313ce5676040518163ffffffff1660e01b815260040160206040518083038186803b1580156130d757600080fd5b505afa1580156130eb573d6000803e3d6000fd5b505050506040513d601f19601f8201168201806040525081019061310f9190614e20565b60ff169050600061312182600a61519a565b90506000613133896060015183613f2b565b886060015161ffff166131469190615242565b90506000886020015160ff168261315d9190615242565b905060006201518061316f848b615242565b6131799190615135565b9050600082116131d75760405162461bcd60e51b815260206004820152602360248201527f52654e46543a3a746f74616c2072656e746572207061796d656e74206973207a60448201526265726f60e81b60648201526084016104aa565b600081116132275760405162461bcd60e51b815260206004820152601d60248201527f52654e46543a3a6c656e646572207061796d656e74206973207a65726f00000060448201526064016104aa565b60006132338284615284565b9050600654600014613260576000613250838e60c001518c6139c4565b905061325c8184615284565b9250505b60208c015161327a906001600160a01b0389169084613b51565b8015613297578a51613297906001600160a01b0389169083613b51565b505050505050505050505050565b60008260a0015182815181106132bd576132bd61530e565b6020026020010151116133125760405162461bcd60e51b815260206004820152601a60248201527f52654e46543a3a6c656e6420616d6f756e74206973207a65726f00000000000060448201526064016104aa565b61ffff80168260a00151828151811061332d5761332d61530e565b602002602001015111156133775760405162461bcd60e51b81526020600482015260116024820152702932a7232a1d1d3737ba103ab4b73a189b60791b60448201526064016104aa565b60008260c00151828151811061338f5761338f61530e565b602002602001015160ff16116133b75760405162461bcd60e51b81526004016104aa90614fe5565b60ff80168260c0015182815181106133d1576133d161530e565b602002602001015160ff16111561341d5760405162461bcd60e51b815260206004820152601060248201526f0a4ca9c8ca87474dcdee840ead2dce8760831b60448201526064016104aa565b60008260e0015182815181106134355761343561530e565b602002602001015160e01c63ffffffff1611610fcd5760405162461bcd60e51b81526004016104aa9061501c565b61347081602001516140cc565b604081015160ff16156134c05760405162461bcd60e51b815260206004820152601860248201527752654e46543a3a6475726174696f6e206e6f74207a65726f60401b60448201526064016104aa565b60608101516001600160e01b0319161561182c5760405162461bcd60e51b815260206004820152601a60248201527f52654e46543a3a72656e74207072696365206e6f74207a65726f00000000000060448201526064016104aa565b60008160ff161161182c5760405162461bcd60e51b815260206004820152601860248201527f52654e46543a3a746f6b656e2069732073656e74696e656c000000000000000060448201526064016104aa565b606061357b8484615284565b6001600160401b0381111561359257613592615324565b6040519080825280602002602001820160405280156135bb578160200160208202803683370190505b509050835b8381101561362557856135d38483615284565b815181106135e3576135e361530e565b60200260200101518286836135f89190615284565b815181106136085761360861530e565b60209081029190910101528061361d816152c7565b9150506135c0565b50949350505050565b600060408601518651815181106136475761364761530e565b60200260200101516001811115613660576136606152f8565b141561372657606085015185518151811061367d5761367d61530e565b60200260200101516001600160a01b03166323b872dd858588608001518960000151815181106136af576136af61530e565b60209081029190910101516040516001600160e01b031960e086901b1681526001600160a01b0393841660048201529290911660248301526044820152606401600060405180830381600087803b15801561370957600080fd5b505af115801561371d573d6000803e3d6000fd5b505050506104cb565b606085015185518151811061373d5761373d61530e565b60200260200101516001600160a01b0316632eb2c2d6858585856040518563ffffffff1660e01b81526004016137769493929190614ebe565b600060405180830381600087803b15801561379057600080fd5b505af11580156137a4573d6000803e3d6000fd5b505050505050505050565b6137b9828261403e565b610fcd5760405162461bcd60e51b815260206004820152601d60248201527f52654e46543a3a72657475726e2064617465206e6f742070617373656400000060448201526064016104aa565b60008360c00151600181111561381d5761381d6152f8565b6000805460405163c6ee427f60e01b815260ff8416600482015292935090916001600160a01b039091169063c6ee427f9060240160206040518083038186803b15801561386957600080fd5b505afa15801561387d573d6000803e3d6000fd5b505050506040513d601f19601f820116820180604052508101906138a1919061474b565b90506000816001600160a01b031663313ce5676040518163ffffffff1660e01b815260040160206040518083038186803b1580156138de57600080fd5b505afa1580156138f2573d6000803e3d6000fd5b505050506040513d601f19601f820116820180604052508101906139169190614e20565b60ff169050600061392882600a61519a565b9050600061393a886060015183613f2b565b876060015161ffff1661394d9190615242565b90506000876020015160ff16826139649190615242565b9050600060065460001461399457613991828860ff16600181111561398b5761398b6152f8565b8a6139c4565b90505b60208a01516139b8906139a78385615284565b6001600160a01b0389169190613b51565b50505050505050505050565b6001600160a01b0381166000908152600760205260408120546139f5576006546139ee9085615242565b9050613a1b565b6001600160a01b038216600090815260076020526040902054613a189085615242565b90505b613a2761271082615135565b90506000836001811115613a3d57613a3d6152f8565b6000805460405163c6ee427f60e01b815260ff8416600482015292935090916001600160a01b039091169063c6ee427f9060240160206040518083038186803b158015613a8957600080fd5b505afa158015613a9d573d6000803e3d6000fd5b505050506040513d601f19601f82011682018060405250810190613ac1919061474b565b9050613b48846001600160a01b0316638da5cb5b6040518163ffffffff1660e01b815260040160206040518083038186803b158015613aff57600080fd5b505afa158015613b13573d6000803e3d6000fd5b505050506040513d601f19601f82011682018060405250810190613b37919061474b565b6001600160a01b0383169085613b51565b50509392505050565b6040516001600160a01b0383166024820152604481018290526121e490849063a9059cbb60e01b906064015b60408051601f198184030181529190526020810180516001600160e01b03166001600160e01b031990931692909217909152614123565b806001600160a01b031682602001516001600160a01b031614610fcd5760405162461bcd60e51b81526020600482015260116024820152702932a7232a1d1d3737ba103632b73232b960791b60448201526064016104aa565b8051613c18906140cc565b602081015160ff1615613c685760405162461bcd60e51b815260206004820152601860248201527752654e46543a3a6475726174696f6e206e6f74207a65726f60401b60448201526064016104aa565b604081015163ffffffff161561182c5760405162461bcd60e51b815260206004820152601960248201527f52654e46543a3a72656e746564206174206e6f74207a65726f0000000000000060448201526064016104aa565b83602001516001600160a01b0316816001600160a01b03161415613d265760405162461bcd60e51b815260206004820152601860248201527f52654e46543a3a63616e742072656e74206f776e206e6674000000000000000060448201526064016104aa565b60ff80168361014001518381518110613d4157613d4161530e565b602002602001015160ff161115613d8d5760405162461bcd60e51b815260206004820152601060248201526f0a4ca9c8ca87474dcdee840ead2dce8760831b60448201526064016104aa565b60008361014001518381518110613da657613da661530e565b602002602001015160ff1611613dce5760405162461bcd60e51b81526004016104aa90614fe5565b61ffff80168361016001518381518110613dea57613dea61530e565b60200260200101511115613e345760405162461bcd60e51b81526020600482015260116024820152702932a7232a1d1d3737ba103ab4b73a189b60791b60448201526064016104aa565b60008361016001518381518110613e4d57613e4d61530e565b602002602001015111613ea25760405162461bcd60e51b815260206004820152601960248201527f52654e46543a3a72656e74416d6f756e74206973207a65726f0000000000000060448201526064016104aa565b836040015160ff168361014001518381518110613ec157613ec161530e565b602002602001015160ff1611156109495760405162461bcd60e51b815260206004820152602860248201527f52654e46543a3a72656e74206475726174696f6e206578636565647320616c6c6044820152670deeecac840dac2f60c31b60648201526084016104aa565b6000613f3783836141f5565b60f083901c61ffff60e085901c166000613f5361271086615135565b905061270f8361ffff161115613f695761270f92505b61270f8261ffff161115613f7d5761270f91505b6000613f8d8661ffff8616615242565b90506000613f9f8361ffff8616615242565b90506000613fad828461511d565b9998505050505050505050565b6040516001600160a01b03808516602483015283166044820152606481018290526109499085906323b872dd60e01b90608401613b7d565b6001600160a01b03811661182c5760405162461bcd60e51b815260206004820152601360248201527252654e46543a3a7a65726f206164647265737360681b60448201526064016104aa565b6000826040015163ffffffff1682116140995760405162461bcd60e51b815260206004820152601860248201527f52654e46543a3a6e6f77206265666f72652072656e746564000000000000000060448201526064016104aa565b62015180836020015160ff166140af9190615242565b60408401516140c49063ffffffff1684615284565b119392505050565b6001600160a01b0381161561182c5760405162461bcd60e51b815260206004820152601960248201527f52654e46543a3a6e6f742061207a65726f20616464726573730000000000000060448201526064016104aa565b6000614178826040518060400160405280602081526020017f5361666545524332303a206c6f772d6c6576656c2063616c6c206661696c6564815250856001600160a01b03166142869092919063ffffffff16565b8051909150156121e457808060200190518101906141969190614dcf565b6121e45760405162461bcd60e51b815260206004820152602a60248201527f5361666545524332303a204552433230206f7065726174696f6e20646964206e6044820152691bdd081cdd58d8d9595960b21b60648201526084016104aa565b60e082901c61423d5760405162461bcd60e51b815260206004820152601460248201527352654e46543a3a696e76616c696420707269636560601b60448201526064016104aa565b612710811015610fcd5760405162461bcd60e51b815260206004820152601460248201527352654e46543a3a696e76616c6964207363616c6560601b60448201526064016104aa565b6060614295848460008561429f565b90505b9392505050565b6060824710156143005760405162461bcd60e51b815260206004820152602660248201527f416464726573733a20696e73756666696369656e742062616c616e636520666f6044820152651c8818d85b1b60d21b60648201526084016104aa565b6001600160a01b0385163b6143575760405162461bcd60e51b815260206004820152601d60248201527f416464726573733a2063616c6c20746f206e6f6e2d636f6e747261637400000060448201526064016104aa565b600080866001600160a01b031685876040516143739190614ea2565b60006040518083038185875af1925050503d80600081146143b0576040519150601f19603f3d011682016040523d82523d6000602084013e6143b5565b606091505b50915091506143c58282866143d0565b979650505050505050565b606083156143df575081614298565b8251156143ef5782518084602001fd5b8160405162461bcd60e51b81526004016104aa9190614f7b565b604051806101a00160405280600081526020016000815260200160608152602001606081526020016060815260200160608152602001606081526020016060815260200160608152602001606081526020016060815260200160608152602001606081525090565b803561447c8161533a565b919050565b600082601f83011261449257600080fd5b813560206144a76144a2836150d4565b6150a4565b80838252828201915082860187848660051b89010111156144c757600080fd5b60005b858110156144ef5781356144dd8161533a565b845292840192908401906001016144ca565b5090979650505050505050565b600082601f83011261450d57600080fd5b8135602061451d6144a2836150d4565b80838252828201915082860187848660051b890101111561453d57600080fd5b60005b858110156144ef57614551826146a7565b84529284019290840190600101614540565b600082601f83011261457457600080fd5b813560206145846144a2836150d4565b80838252828201915082860187848660051b89010111156145a457600080fd5b6000805b868110156145d0578235600281106145be578283fd5b855293850193918501916001016145a8565b509198975050505050505050565b600082601f8301126145ef57600080fd5b813560206145ff6144a2836150d4565b80838252828201915082860187848660051b890101111561461f57600080fd5b60005b858110156144ef57813584529284019290840190600101614622565b600082601f83011261464f57600080fd5b8135602061465f6144a2836150d4565b80838252828201915082860187848660051b890101111561467f57600080fd5b60005b858110156144ef5781356146958161535d565b84529284019290840190600101614682565b80356001600160e01b03198116811461447c57600080fd5b600082601f8301126146d057600080fd5b81356001600160401b038111156146e9576146e9615324565b6146fc601f8201601f19166020016150a4565b81815284602083860101111561471157600080fd5b816020850160208301376000918101602001919091529392505050565b60006020828403121561474057600080fd5b81356142988161533a565b60006020828403121561475d57600080fd5b81516142988161533a565b600080600080600060a0868803121561478057600080fd5b853561478b8161533a565b9450602086013561479b8161533a565b935060408601356001600160401b03808211156147b757600080fd5b6147c389838a016145de565b945060608801359150808211156147d957600080fd5b6147e589838a016145de565b935060808801359150808211156147fb57600080fd5b50614808888289016146bf565b9150509295509295909350565b6000806000806080858703121561482b57600080fd5b84356148368161533a565b935060208501356148468161533a565b92506040850135915060608501356001600160401b0381111561486857600080fd5b614874878288016146bf565b91505092959194509250565b600080600080600060a0868803121561489857600080fd5b85356148a38161533a565b945060208601356148b38161533a565b9350604086013592506060860135915060808601356001600160401b038111156148dc57600080fd5b614808888289016146bf565b600080604083850312156148fb57600080fd5b82356149068161533a565b946020939093013593505050565b60008060006060848603121561492957600080fd5b83356149348161533a565b95602085013595506040909401359392505050565b6000806000806080858703121561495f57600080fd5b84356001600160401b038082111561497657600080fd5b61498288838901614563565b9550602087013591508082111561499857600080fd5b6149a488838901614481565b945060408701359150808211156149ba57600080fd5b6149c6888389016145de565b935060608701359150808211156149dc57600080fd5b50614874878288016145de565b600080600080600080600060e0888a031215614a0457600080fd5b87356001600160401b0380821115614a1b57600080fd5b614a278b838c01614563565b985060208a0135915080821115614a3d57600080fd5b614a498b838c01614481565b975060408a0135915080821115614a5f57600080fd5b614a6b8b838c016145de565b965060608a0135915080821115614a8157600080fd5b614a8d8b838c016145de565b955060808a0135915080821115614aa357600080fd5b614aaf8b838c01614563565b9450614abd60a08b01614471565b935060c08a0135915080821115614ad357600080fd5b50614ae08a828b016145de565b91505092959891949750929550565b600080600080600060a08688031215614b0757600080fd5b85356001600160401b0380821115614b1e57600080fd5b614b2a89838a01614563565b96506020880135915080821115614b4057600080fd5b614b4c89838a01614481565b95506040880135915080821115614b6257600080fd5b614b6e89838a016145de565b94506060880135915080821115614b8457600080fd5b614b9089838a016145de565b93506080880135915080821115614ba657600080fd5b50614808888289016145de565b600080600080600080600060e0888a031215614bce57600080fd5b87356001600160401b0380821115614be557600080fd5b614bf18b838c01614563565b985060208a0135915080821115614c0757600080fd5b614c138b838c01614481565b975060408a0135915080821115614c2957600080fd5b614c358b838c016145de565b965060608a0135915080821115614c4b57600080fd5b614c578b838c016145de565b955060808a0135915080821115614c6d57600080fd5b614c798b838c0161463e565b945060a08a0135915080821115614c8f57600080fd5b614c9b8b838c016144fc565b935060c08a0135915080821115614cb157600080fd5b50614ae08a828b01614563565b60008060008060008060c08789031215614cd757600080fd5b86356001600160401b0380821115614cee57600080fd5b614cfa8a838b01614563565b97506020890135915080821115614d1057600080fd5b614d1c8a838b01614481565b96506040890135915080821115614d3257600080fd5b614d3e8a838b016145de565b95506060890135915080821115614d5457600080fd5b614d608a838b016145de565b94506080890135915080821115614d7657600080fd5b614d828a838b0161463e565b935060a0890135915080821115614d9857600080fd5b50614da589828a016145de565b9150509295509295509295565b600060208284031215614dc457600080fd5b81356142988161534f565b600060208284031215614de157600080fd5b81516142988161534f565b600060208284031215614dfe57600080fd5b614298826146a7565b600060208284031215614e1957600080fd5b5035919050565b600060208284031215614e3257600080fd5b81516142988161535d565b600081518084526020808501945080840160005b83811015614e6d57815187529582019590820190600101614e51565b509495945050505050565b60609390931b6bffffffffffffffffffffffff191683526014830191909152603482015260540190565b60008251614eb481846020870161529b565b9190910192915050565b6001600160a01b0385811682528416602082015260a060408201819052600090614eea90830185614e3d565b8281036060840152614efc8185614e3d565b838103608090940193909352505060008152602001949350505050565b86151581526020810186905260ff851660408201526001600160e01b03198416606082015261ffff8316608082015260c0810160028310614f6a57634e487b7160e01b600052602160045260246000fd5b8260a0830152979650505050505050565b6020815260008251806020840152614f9a81604085016020870161529b565b601f01601f19169190910160400192915050565b6020808252601b908201527f52654e46543a3a696e76616c6964206e6674207374616e646172640000000000604082015260600190565b60208082526017908201527f52654e46543a3a6475726174696f6e206973207a65726f000000000000000000604082015260600190565b60208082526019908201527f52654e46543a3a72656e74207072696365206973207a65726f00000000000000604082015260600190565b6020808252600d908201526c14995391950e8e9c185d5cd959609a1b604082015260600190565b60208082526010908201526f2932a7232a1d1d3737ba1030b236b4b760811b604082015260600190565b604051601f8201601f191681016001600160401b03811182821017156150cc576150cc615324565b604052919050565b60006001600160401b038211156150ed576150ed615324565b5060051b60200190565b600061ffff808316818516808303821115615114576151146152e2565b01949350505050565b60008219821115615130576151306152e2565b500190565b60008261515257634e487b7160e01b600052601260045260246000fd5b500490565b600181815b80851115615192578160001904821115615178576151786152e2565b8085161561518557918102915b93841c939080029061515c565b509250929050565b600061429883836000826151b057506001610481565b816151bd57506000610481565b81600181146151d357600281146151dd576151f9565b6001915050610481565b60ff8411156151ee576151ee6152e2565b50506001821b610481565b5060208310610133831016604e8410600b841016171561521c575081810a610481565b6152268383615157565b806000190482111561523a5761523a6152e2565b029392505050565b600081600019048311821515161561525c5761525c6152e2565b500290565b600061ffff8381169083168181101561527c5761527c6152e2565b039392505050565b600082821015615296576152966152e2565b500390565b60005b838110156152b657818101518382015260200161529e565b838111156109495750506000910152565b60006000198214156152db576152db6152e2565b5060010190565b634e487b7160e01b600052601160045260246000fd5b634e487b7160e01b600052602160045260246000fd5b634e487b7160e01b600052603260045260246000fd5b634e487b7160e01b600052604160045260246000fd5b6001600160a01b038116811461182c57600080fd5b801515811461182c57600080fd5b60ff8116811461182c57600080fdfea26469706673582212204b3d23ccc802c05308fc815f26e5d3e19356df1fac6ffa175a4bdca0faa5632864736f6c63430008070033",
  "linkReferences": {},
  "deployedLinkReferences": {}
}